{
  "_format": "hh3-artifact-1",
  "contractName": "CrypTip",
  "sourceName": "contracts/CrypTip.sol",
  "abi": [
    {
      "inputs": [],
      "stateMutability": "nonpayable",
      "type": "constructor"
    },
    {
      "inputs": [
        {
          "internalType": "address",
          "name": "owner",
          "type": "address"
        }
      ],
      "name": "OwnableInvalidOwner",
      "type": "error"
    },
    {
      "inputs": [
        {
          "internalType": "address",
          "name": "account",
          "type": "address"
        }
      ],
      "name": "OwnableUnauthorizedAccount",
      "type": "error"
    },
    {
      "inputs": [],
      "name": "ReentrancyGuardReentrantCall",
      "type": "error"
    },
    {
      "anonymous": false,
      "inputs": [
        {
          "indexed": true,
          "internalType": "address",
          "name": "from",
          "type": "address"
        },
        {
          "indexed": true,
          "internalType": "address",
          "name": "to",
          "type": "address"
        },
        {
          "indexed": false,
          "internalType": "uint256",
          "name": "timestamp",
          "type": "uint256"
        },
        {
          "indexed": false,
          "internalType": "string",
          "name": "name",
          "type": "string"
        },
        {
          "indexed": false,
          "internalType": "string",
          "name": "message",
          "type": "string"
        },
        {
          "indexed": false,
          "internalType": "uint256",
          "name": "amount",
          "type": "uint256"
        },
        {
          "indexed": false,
          "internalType": "uint256",
          "name": "fee",
          "type": "uint256"
        }
      ],
      "name": "NewTip",
      "type": "event"
    },
    {
      "anonymous": false,
      "inputs": [
        {
          "indexed": true,
          "internalType": "address",
          "name": "previousOwner",
          "type": "address"
        },
        {
          "indexed": true,
          "internalType": "address",
          "name": "newOwner",
          "type": "address"
        }
      ],
      "name": "OwnershipTransferred",
      "type": "event"
    },
    {
      "anonymous": false,
      "inputs": [
        {
          "indexed": true,
          "internalType": "address",
          "name": "streamer",
          "type": "address"
        },
        {
          "indexed": false,
          "internalType": "uint256",
          "name": "amount",
          "type": "uint256"
        }
      ],
      "name": "Withdrawn",
      "type": "event"
    },
    {
      "inputs": [
        {
          "internalType": "address",
          "name": "",
          "type": "address"
        }
      ],
      "name": "balances",
      "outputs": [
        {
          "internalType": "uint256",
          "name": "",
          "type": "uint256"
        }
      ],
      "stateMutability": "view",
      "type": "function"
    },
    {
      "inputs": [
        {
          "internalType": "address",
          "name": "_streamer",
          "type": "address"
        }
      ],
      "name": "getStreamerStats",
      "outputs": [
        {
          "internalType": "uint256",
          "name": "currentBalance",
          "type": "uint256"
        },
        {
          "internalType": "uint256",
          "name": "lifetimeEarned",
          "type": "uint256"
        },
        {
          "internalType": "uint256",
          "name": "lifetimeTipped",
          "type": "uint256"
        }
      ],
      "stateMutability": "view",
      "type": "function"
    },
    {
      "inputs": [],
      "name": "owner",
      "outputs": [
        {
          "internalType": "address",
          "name": "",
          "type": "address"
        }
      ],
      "stateMutability": "view",
      "type": "function"
    },
    {
      "inputs": [],
      "name": "platformFeePercentage",
      "outputs": [
        {
          "internalType": "uint256",
          "name": "",
          "type": "uint256"
        }
      ],
      "stateMutability": "view",
      "type": "function"
    },
    {
      "inputs": [],
      "name": "renounceOwnership",
      "outputs": [],
      "stateMutability": "nonpayable",
      "type": "function"
    },
    {
      "inputs": [
        {
          "internalType": "address",
          "name": "_streamer",
          "type": "address"
        },
        {
          "internalType": "string",
          "name": "_name",
          "type": "string"
        },
        {
          "internalType": "string",
          "name": "_message",
          "type": "string"
        }
      ],
      "name": "sendTip",
      "outputs": [],
      "stateMutability": "payable",
      "type": "function"
    },
    {
      "inputs": [
        {
          "internalType": "uint256",
          "name": "_newFee",
          "type": "uint256"
        }
      ],
      "name": "setFeePercentage",
      "outputs": [],
      "stateMutability": "nonpayable",
      "type": "function"
    },
    {
      "inputs": [
        {
          "internalType": "address",
          "name": "",
          "type": "address"
        }
      ],
      "name": "totalEarned",
      "outputs": [
        {
          "internalType": "uint256",
          "name": "",
          "type": "uint256"
        }
      ],
      "stateMutability": "view",
      "type": "function"
    },
    {
      "inputs": [
        {
          "internalType": "address",
          "name": "",
          "type": "address"
        }
      ],
      "name": "totalTipped",
      "outputs": [
        {
          "internalType": "uint256",
          "name": "",
          "type": "uint256"
        }
      ],
      "stateMutability": "view",
      "type": "function"
    },
    {
      "inputs": [
        {
          "internalType": "address",
          "name": "newOwner",
          "type": "address"
        }
      ],
      "name": "transferOwnership",
      "outputs": [],
      "stateMutability": "nonpayable",
      "type": "function"
    },
    {
      "inputs": [],
      "name": "withdraw",
      "outputs": [],
      "stateMutability": "nonpayable",
      "type": "function"
    }
  ],
  "bytecode": "0x608060405260056001553480156013575f5ffd5b503380603857604051631e4fbdf760e01b81525f600482015260240160405180910390fd5b603f816068565b5060017f9b779b17422d0df92223018b32b4d1fa46e071723d6817e2486d003becc55f005560b7565b5f80546001600160a01b038381166001600160a01b0319831681178455604051919092169283917f8be0079c531659141344cd1fd0a4f28419497f9722a3daafe3b4186f6b6457e09190a35050565b6109a7806100c45f395ff3fe60806040526004361061009a575f3560e01c8063715018a611610062578063715018a6146101965780638da5cb5b146101aa578063ae06c1b7146101d0578063cdd78cfc146101ef578063e9173c5114610204578063f2fde38b1461022f575f5ffd5b806314b892b31461009e57806327e235e3146100b35780632c2dbf5c146100f15780633ccfd60b14610157578063649aca4a1461016b575b5f5ffd5b6100b16100ac3660046107c3565b61024e565b005b3480156100be575f5ffd5b506100de6100cd366004610837565b60026020525f908152604090205481565b6040519081526020015b60405180910390f35b3480156100fc575f5ffd5b5061013c61010b366004610837565b6001600160a01b03165f90815260026020908152604080832054600383528184205460049093529220549192909190565b604080519384526020840192909252908201526060016100e8565b348015610162575f5ffd5b506100b161045d565b348015610176575f5ffd5b506100de610185366004610837565b60036020525f908152604090205481565b3480156101a1575f5ffd5b506100b16105a7565b3480156101b5575f5ffd5b505f546040516001600160a01b0390911681526020016100e8565b3480156101db575f5ffd5b506100b16101ea366004610857565b6105b8565b3480156101fa575f5ffd5b506100de60015481565b34801561020f575f5ffd5b506100de61021e366004610837565b60046020525f908152604090205481565b34801561023a575f5ffd5b506100b1610249366004610837565b610607565b610256610644565b5f34116102b65760405162461bcd60e51b815260206004820152602360248201527f56616c756520746970206d7573742062652067726561746572207468616e207a60448201526265726f60e81b60648201526084015b60405180910390fd5b6001600160a01b0383166103035760405162461bcd60e51b81526020600482015260146024820152731059191c995cdcc81a5cc81b9bdd081d985b1a5960621b60448201526064016102ad565b5f6064600154346103149190610882565b61031e919061089f565b90505f61032b82346108be565b6001600160a01b0386165f908152600260205260408120805492935083929091906103579084906108d1565b9091555082905060025f6103725f546001600160a01b031690565b6001600160a01b03166001600160a01b031681526020019081526020015f205f82825461039f91906108d1565b90915550506001600160a01b0385165f90815260036020526040812080548392906103cb9084906108d1565b9091555050335f90815260046020526040812080543492906103ee9084906108d1565b90915550506040516001600160a01b0386169033907f1dbe2e486c634e1e746ea68fd08777083dae90f73de99680bd1bcb11f0755f5e906104389042908990899088908a90610912565b60405180910390a3505061045860015f5160206109525f395f51905f5255565b505050565b610465610644565b335f90815260026020526040902054806104c15760405162461bcd60e51b815260206004820152601760248201527f4e6f2042616c616e63657320746f20576974686472617700000000000000000060448201526064016102ad565b335f818152600260205260408082208290555190919083908381818185875af1925050503d805f811461050f576040519150601f19603f3d011682016040523d82523d5f602084013e610514565b606091505b50509050806105585760405162461bcd60e51b815260206004820152601060248201526f5769746864726177204661696c65642160801b60448201526064016102ad565b60405182815233907f7084f5476618d8e60b11ef0d7d3f06914655adb8793e28ff7f018d4c76d505d59060200160405180910390a250506105a560015f5160206109525f395f51905f5255565b565b6105af61065f565b6105a55f61068b565b6105c061065f565b60148111156106025760405162461bcd60e51b815260206004820152600e60248201526d4d6178696d756d2069732032302560901b60448201526064016102ad565b600155565b61060f61065f565b6001600160a01b03811661063857604051631e4fbdf760e01b81525f60048201526024016102ad565b6106418161068b565b50565b61064c6106da565b60025f5160206109525f395f51905f5255565b5f546001600160a01b031633146105a55760405163118cdaa760e01b81523360048201526024016102ad565b5f80546001600160a01b038381166001600160a01b0319831681178455604051919092169283917f8be0079c531659141344cd1fd0a4f28419497f9722a3daafe3b4186f6b6457e09190a35050565b5f5160206109525f395f51905f52546002036105a557604051633ee5aeb560e01b815260040160405180910390fd5b80356001600160a01b038116811461071f575f5ffd5b919050565b634e487b7160e01b5f52604160045260245ffd5b5f82601f830112610747575f5ffd5b813567ffffffffffffffff81111561076157610761610724565b604051601f8201601f19908116603f0116810167ffffffffffffffff8111828210171561079057610790610724565b6040528181528382016020018510156107a7575f5ffd5b816020850160208301375f918101602001919091529392505050565b5f5f5f606084860312156107d5575f5ffd5b6107de84610709565b9250602084013567ffffffffffffffff8111156107f9575f5ffd5b61080586828701610738565b925050604084013567ffffffffffffffff811115610821575f5ffd5b61082d86828701610738565b9150509250925092565b5f60208284031215610847575f5ffd5b61085082610709565b9392505050565b5f60208284031215610867575f5ffd5b5035919050565b634e487b7160e01b5f52601160045260245ffd5b80820281158282048414176108995761089961086e565b92915050565b5f826108b957634e487b7160e01b5f52601260045260245ffd5b500490565b818103818111156108995761089961086e565b808201808211156108995761089961086e565b5f81518084528060208401602086015e5f602082860101526020601f19601f83011685010191505092915050565b85815260a060208201525f61092a60a08301876108e4565b828103604084015261093c81876108e4565b6060840195909552505060800152939250505056fe9b779b17422d0df92223018b32b4d1fa46e071723d6817e2486d003becc55f00a2646970667358221220520bb526bb39dbd42b2f01beb61d9c58629406a0a44f3dd869821cb3a8b57deb64736f6c634300081c0033",
  "linkReferences": {},
  "deployedLinkReferences": {},
  "immutableReferences": {},
  "inputSourceName": "project/contracts/CrypTip.sol",
  "buildInfoId": "solc-0_8_28-17d7061f20f7c752420944ed05d03821c7b928a0"
}